{
  "transactions": [
    {
      "hash": "0xd2fa821207891eb56b2f6368063551be5b4bbc326c40eb51214b7a363e8495e9",
      "transactionType": "CREATE",
      "contractName": "Counter",
      "contractAddress": "0x5719046dd09aF1718306Fb6f6d3AB106B95C0d31",
      "function": null,
      "arguments": null,
      "transaction": {
        "type": "0x02",
        "from": "0xaa7dd4519f10f6c97aaf9ac949432f4af5120e62",
        "gas": "0x21dee",
        "value": "0x0",
        "data": "0x608060405234801561001057600080fd5b5060f78061001f6000396000f3fe6080604052348015600f57600080fd5b5060043610603c5760003560e01c80633fb5c1cb1460415780638381f58a146053578063d09de08a14606d575b600080fd5b6051604c3660046083565b600055565b005b605b60005481565b60405190815260200160405180910390f35b6051600080549080607c83609b565b9190505550565b600060208284031215609457600080fd5b5035919050565b60006001820160ba57634e487b7160e01b600052601160045260246000fd5b506001019056fea2646970667358221220360e3238df9f8769d614d15196f7ec3df7dc935590e3ac2c8f81c843faa2c1ea64736f6c63430008130033",
        "nonce": "0xbc",
        "accessList": []
      },
      "additionalContracts": [],
      "isFixedGasLimit": false
    },
    {
      "hash": "0xaa82b47bb44b9652e9e52164d1446bdcaa8c7dd7fccc208eed2020d8eac6f176",
      "transactionType": "CALL",
      "contractName": "Counter",
      "contractAddress": "0x5719046dd09aF1718306Fb6f6d3AB106B95C0d31",
      "function": "setNumber(uint256)",
      "arguments": [
        "69420"
      ],
      "transaction": {
        "type": "0x02",
        "from": "0xaa7dd4519f10f6c97aaf9ac949432f4af5120e62",
        "to": "0x5719046dd09af1718306fb6f6d3ab106b95c0d31",
        "gas": "0xeacc",
        "value": "0x0",
        "data": "0x3fb5c1cb0000000000000000000000000000000000000000000000000000000000010f2c",
        "nonce": "0xbd",
        "accessList": []
      },
      "additionalContracts": [],
      "isFixedGasLimit": false
    }
  ],
  "receipts": [],
  "libraries": [],
  "pending": [
    "0xd2fa821207891eb56b2f6368063551be5b4bbc326c40eb51214b7a363e8495e9",
    "0xaa82b47bb44b9652e9e52164d1446bdcaa8c7dd7fccc208eed2020d8eac6f176"
  ],
  "returns": {},
  "timestamp": 1699290775,
  "chain": 5,
  "multi": false,
  "commit": "e19178d"
}